{
  "_format": "hh-sol-artifact-1",
  "contractName": "TicTacToe",
  "sourceName": "contracts/TicTacToe.sol",
  "abi": [
    {
      "inputs": [
        {
          "internalType": "address",
          "name": "_vaultAddress",
          "type": "address"
        }
      ],
      "stateMutability": "nonpayable",
      "type": "constructor"
    },
    {
      "anonymous": false,
      "inputs": [
        {
          "indexed": false,
          "internalType": "uint256",
          "name": "id",
          "type": "uint256"
        },
        {
          "indexed": false,
          "internalType": "address",
          "name": "player1",
          "type": "address"
        },
        {
          "indexed": false,
          "internalType": "uint256",
          "name": "betAmount",
          "type": "uint256"
        }
      ],
      "name": "GameCreated",
      "type": "event"
    },
    {
      "anonymous": false,
      "inputs": [
        {
          "indexed": false,
          "internalType": "uint256",
          "name": "id",
          "type": "uint256"
        }
      ],
      "name": "GameDraw",
      "type": "event"
    },
    {
      "anonymous": false,
      "inputs": [
        {
          "indexed": false,
          "internalType": "uint256",
          "name": "id",
          "type": "uint256"
        },
        {
          "indexed": false,
          "internalType": "address",
          "name": "player",
          "type": "address"
        }
      ],
      "name": "GameWon",
      "type": "event"
    },
    {
      "anonymous": false,
      "inputs": [
        {
          "indexed": false,
          "internalType": "uint256",
          "name": "id",
          "type": "uint256"
        },
        {
          "indexed": false,
          "internalType": "address",
          "name": "player",
          "type": "address"
        },
        {
          "indexed": false,
          "internalType": "uint8",
          "name": "position",
          "type": "uint8"
        }
      ],
      "name": "MoveMade",
      "type": "event"
    },
    {
      "anonymous": false,
      "inputs": [
        {
          "indexed": false,
          "internalType": "uint256",
          "name": "id",
          "type": "uint256"
        },
        {
          "indexed": false,
          "internalType": "address",
          "name": "player",
          "type": "address"
        }
      ],
      "name": "PlayerJoined",
      "type": "event"
    },
    {
      "inputs": [
        {
          "internalType": "uint256",
          "name": "",
          "type": "uint256"
        },
        {
          "internalType": "uint256",
          "name": "",
          "type": "uint256"
        }
      ],
      "name": "boards",
      "outputs": [
        {
          "internalType": "address",
          "name": "",
          "type": "address"
        }
      ],
      "stateMutability": "view",
      "type": "function"
    },
    {
      "inputs": [
        {
          "internalType": "uint256",
          "name": "_betAmount",
          "type": "uint256"
        }
      ],
      "name": "createGame",
      "outputs": [
        {
          "internalType": "uint256",
          "name": "",
          "type": "uint256"
        }
      ],
      "stateMutability": "nonpayable",
      "type": "function"
    },
    {
      "inputs": [],
      "name": "gameCount",
      "outputs": [
        {
          "internalType": "uint256",
          "name": "",
          "type": "uint256"
        }
      ],
      "stateMutability": "view",
      "type": "function"
    },
    {
      "inputs": [
        {
          "internalType": "uint256",
          "name": "",
          "type": "uint256"
        }
      ],
      "name": "games",
      "outputs": [
        {
          "internalType": "uint256",
          "name": "id",
          "type": "uint256"
        },
        {
          "internalType": "address",
          "name": "player1",
          "type": "address"
        },
        {
          "internalType": "address",
          "name": "player2",
          "type": "address"
        },
        {
          "internalType": "enum TicTacToe.State",
          "name": "state",
          "type": "uint8"
        },
        {
          "internalType": "uint256",
          "name": "betAmount",
          "type": "uint256"
        }
      ],
      "stateMutability": "view",
      "type": "function"
    },
    {
      "inputs": [
        {
          "internalType": "uint256",
          "name": "id",
          "type": "uint256"
        }
      ],
      "name": "getBoard",
      "outputs": [
        {
          "internalType": "address[9]",
          "name": "",
          "type": "address[9]"
        }
      ],
      "stateMutability": "view",
      "type": "function"
    },
    {
      "inputs": [
        {
          "internalType": "uint256",
          "name": "id",
          "type": "uint256"
        }
      ],
      "name": "joinGame",
      "outputs": [],
      "stateMutability": "nonpayable",
      "type": "function"
    },
    {
      "inputs": [
        {
          "internalType": "uint256",
          "name": "id",
          "type": "uint256"
        },
        {
          "internalType": "uint8",
          "name": "position",
          "type": "uint8"
        }
      ],
      "name": "makeMove",
      "outputs": [],
      "stateMutability": "nonpayable",
      "type": "function"
    }
  ],
  "bytecode": "0x60806040523480156200001157600080fd5b5060405162002e9738038062002e978339818101604052810190620000379190620000e9565b80600160006101000a81548173ffffffffffffffffffffffffffffffffffffffff021916908373ffffffffffffffffffffffffffffffffffffffff160217905550506200011b565b600080fd5b600073ffffffffffffffffffffffffffffffffffffffff82169050919050565b6000620000b18262000084565b9050919050565b620000c381620000a4565b8114620000cf57600080fd5b50565b600081519050620000e381620000b8565b92915050565b6000602082840312156200010257620001016200007f565b5b60006200011284828501620000d2565b91505092915050565b612d6c806200012b6000396000f3fe608060405234801561001057600080fd5b506004361061007d5760003560e01c80634d1975b41161005b5780634d1975b4146101165780637fd6f7c414610134578063b766762914610150578063efaa55a0146101805761007d565b8063117a5b901461008257806345e09e54146100b657806348e837b9146100e6575b600080fd5b61009c6004803603810190610097919061248b565b61019c565b6040516100ad95949392919061257f565b60405180910390f35b6100d060048036038101906100cb919061248b565b61021f565b6040516100dd919061267d565b60405180910390f35b61010060048036038101906100fb919061248b565b6102b3565b60405161010d9190612699565b60405180910390f35b61011e610808565b60405161012b9190612699565b60405180910390f35b61014e600480360381019061014991906126ed565b61080e565b005b61016a6004803603810190610165919061272d565b61157d565b604051610177919061276d565b60405180910390f35b61019a6004803603810190610195919061248b565b6115c2565b005b60026020528060005260406000206000915090508060000154908060010160009054906101000a900473ffffffffffffffffffffffffffffffffffffffff16908060020160009054906101000a900473ffffffffffffffffffffffffffffffffffffffff16908060020160149054906101000a900460ff16908060030154905085565b610227612393565b600360008381526020019081526020016000206009806020026040519081016040528092919082600980156102a7576020028201915b8160009054906101000a900473ffffffffffffffffffffffffffffffffffffffff1673ffffffffffffffffffffffffffffffffffffffff168152602001906001019080831161025d575b50505050509050919050565b60008082116102f7576040517f08c379a00000000000000000000000000000000000000000000000000000000081526004016102ee9061280b565b60405180910390fd5b600160009054906101000a900473ffffffffffffffffffffffffffffffffffffffff1673ffffffffffffffffffffffffffffffffffffffff16636c24a76f336040518263ffffffff1660e01b8152600401610352919061276d565b602060405180830381865afa15801561036f573d6000803e3d6000fd5b505050506040513d601f19601f820116820180604052508101906103939190612840565b8211156103d5576040517f08c379a00000000000000000000000000000000000000000000000000000000081526004016103cc906128b9565b60405180910390fd5b600160009054906101000a900473ffffffffffffffffffffffffffffffffffffffff1673ffffffffffffffffffffffffffffffffffffffff1663282d3fdf33846040518363ffffffff1660e01b81526004016104329291906128d9565b600060405180830381600087803b15801561044c57600080fd5b505af1158015610460573d6000803e3d6000fd5b50505050600080600081548092919061047890612931565b9190505590506040518060a001604052808281526020013373ffffffffffffffffffffffffffffffffffffffff168152602001600073ffffffffffffffffffffffffffffffffffffffff168152602001600060058111156104dc576104db612508565b5b815260200184815250600260008381526020019081526020016000206000820151816000015560208201518160010160006101000a81548173ffffffffffffffffffffffffffffffffffffffff021916908373ffffffffffffffffffffffffffffffffffffffff16021790555060408201518160020160006101000a81548173ffffffffffffffffffffffffffffffffffffffff021916908373ffffffffffffffffffffffffffffffffffffffff16021790555060608201518160020160146101000a81548160ff021916908360058111156105bb576105ba612508565b5b021790555060808201518160030155905050604051806101200160405280600073ffffffffffffffffffffffffffffffffffffffff1673ffffffffffffffffffffffffffffffffffffffff168152602001600073ffffffffffffffffffffffffffffffffffffffff1673ffffffffffffffffffffffffffffffffffffffff168152602001600073ffffffffffffffffffffffffffffffffffffffff1673ffffffffffffffffffffffffffffffffffffffff168152602001600073ffffffffffffffffffffffffffffffffffffffff1673ffffffffffffffffffffffffffffffffffffffff168152602001600073ffffffffffffffffffffffffffffffffffffffff1673ffffffffffffffffffffffffffffffffffffffff168152602001600073ffffffffffffffffffffffffffffffffffffffff1673ffffffffffffffffffffffffffffffffffffffff168152602001600073ffffffffffffffffffffffffffffffffffffffff1673ffffffffffffffffffffffffffffffffffffffff168152602001600073ffffffffffffffffffffffffffffffffffffffff1673ffffffffffffffffffffffffffffffffffffffff168152602001600073ffffffffffffffffffffffffffffffffffffffff1673ffffffffffffffffffffffffffffffffffffffff16815250600360008381526020019081526020016000209060096107c39291906123b6565b507f7dfb67e9ff596fca4da65c7eedb128cd1aac553af54b3c0cb733625a2480d8bd8133856040516107f793929190612979565b60405180910390a180915050919050565b60005481565b600073ffffffffffffffffffffffffffffffffffffffff166002600084815260200190815260200160002060010160009054906101000a900473ffffffffffffffffffffffffffffffffffffffff1673ffffffffffffffffffffffffffffffffffffffff16036108b3576040517f08c379a00000000000000000000000000000000000000000000000000000000081526004016108aa906129fc565b60405180910390fd5b600160058111156108c7576108c6612508565b5b6002600084815260200190815260200160002060020160149054906101000a900460ff1660058111156108fd576108fc612508565b5b148061095057506002600581111561091857610917612508565b5b6002600084815260200190815260200160002060020160149054906101000a900460ff16600581111561094e5761094d612508565b5b145b61098f576040517f08c379a000000000000000000000000000000000000000000000000000000000815260040161098690612a68565b60405180910390fd5b600073ffffffffffffffffffffffffffffffffffffffff16600360008481526020019081526020016000208260ff16600981106109cf576109ce612a88565b5b0160009054906101000a900473ffffffffffffffffffffffffffffffffffffffff1673ffffffffffffffffffffffffffffffffffffffff1614610a47576040517f08c379a0000000000000000000000000000000000000000000000000000000008152600401610a3e90612b03565b60405180910390fd5b6002600083815260200190815260200160002060010160009054906101000a900473ffffffffffffffffffffffffffffffffffffffff1673ffffffffffffffffffffffffffffffffffffffff163373ffffffffffffffffffffffffffffffffffffffff16148015610aff575060016005811115610ac757610ac6612508565b5b6002600084815260200190815260200160002060020160149054906101000a900460ff166005811115610afd57610afc612508565b5b145b80610bbe57506002600083815260200190815260200160002060020160009054906101000a900473ffffffffffffffffffffffffffffffffffffffff1673ffffffffffffffffffffffffffffffffffffffff163373ffffffffffffffffffffffffffffffffffffffff16148015610bbd575060026005811115610b8557610b84612508565b5b6002600084815260200190815260200160002060020160149054906101000a900460ff166005811115610bbb57610bba612508565b5b145b5b610bfd576040517f08c379a0000000000000000000000000000000000000000000000000000000008152600401610bf490612b6f565b60405180910390fd5b33600360008481526020019081526020016000208260ff1660098110610c2657610c25612a88565b5b0160006101000a81548173ffffffffffffffffffffffffffffffffffffffff021916908373ffffffffffffffffffffffffffffffffffffffff1602179055507f2e609ae07cc76b1b2b76d7ada4250d5191a8eb5eb7e19181c23c5da8e9643ad1823383604051610c9893929190612b9e565b60405180910390a16002600083815260200190815260200160002060010160009054906101000a900473ffffffffffffffffffffffffffffffffffffffff1673ffffffffffffffffffffffffffffffffffffffff163373ffffffffffffffffffffffffffffffffffffffff1603610d4c57600280600084815260200190815260200160002060020160146101000a81548160ff02191690836005811115610d4257610d41612508565b5b0217905550610d8c565b60016002600084815260200190815260200160002060020160146101000a81548160ff02191690836005811115610d8657610d85612508565b5b02179055505b610e1960036000848152602001908152602001600020600980602002604051908101604052809291908260098015610e0f576020028201915b8160009054906101000a900473ffffffffffffffffffffffffffffffffffffffff1673ffffffffffffffffffffffffffffffffffffffff1681526020019060010190808311610dc5575b5050505050611a18565b156112b957600160009054906101000a900473ffffffffffffffffffffffffffffffffffffffff1673ffffffffffffffffffffffffffffffffffffffff16637eee288d6002600085815260200190815260200160002060010160009054906101000a900473ffffffffffffffffffffffffffffffffffffffff1660026000868152602001908152602001600020600301546040518363ffffffff1660e01b8152600401610ec79291906128d9565b600060405180830381600087803b158015610ee157600080fd5b505af1158015610ef5573d6000803e3d6000fd5b50505050600160009054906101000a900473ffffffffffffffffffffffffffffffffffffffff1673ffffffffffffffffffffffffffffffffffffffff16637eee288d6002600085815260200190815260200160002060020160009054906101000a900473ffffffffffffffffffffffffffffffffffffffff1660026000868152602001908152602001600020600301546040518363ffffffff1660e01b8152600401610fa29291906128d9565b600060405180830381600087803b158015610fbc57600080fd5b505af1158015610fd0573d6000803e3d6000fd5b505050506002600083815260200190815260200160002060010160009054906101000a900473ffffffffffffffffffffffffffffffffffffffff1673ffffffffffffffffffffffffffffffffffffffff163373ffffffffffffffffffffffffffffffffffffffff160361115e5760036002600084815260200190815260200160002060020160146101000a81548160ff0219169083600581111561107757611076612508565b5b0217905550600160009054906101000a900473ffffffffffffffffffffffffffffffffffffffff1673ffffffffffffffffffffffffffffffffffffffff1663bb35783b6002600085815260200190815260200160002060020160009054906101000a900473ffffffffffffffffffffffffffffffffffffffff163360026000878152602001908152602001600020600301546040518463ffffffff1660e01b815260040161112793929190612bd5565b600060405180830381600087803b15801561114157600080fd5b505af1158015611155573d6000803e3d6000fd5b5050505061127b565b60046002600084815260200190815260200160002060020160146101000a81548160ff0219169083600581111561119857611197612508565b5b0217905550600160009054906101000a900473ffffffffffffffffffffffffffffffffffffffff1673ffffffffffffffffffffffffffffffffffffffff1663bb35783b6002600085815260200190815260200160002060010160009054906101000a900473ffffffffffffffffffffffffffffffffffffffff163360026000878152602001908152602001600020600301546040518463ffffffff1660e01b815260040161124893929190612bd5565b600060405180830381600087803b15801561126257600080fd5b505af1158015611276573d6000803e3d6000fd5b505050505b7f4dc08ce212d967a2959e5901a545b00fd4f86c108a0de62a8d906b7b0793c6d682336040516112ac929190612c0c565b60405180910390a1611579565b6113466003600084815260200190815260200160002060098060200260405190810160405280929190826009801561133c576020028201915b8160009054906101000a900473ffffffffffffffffffffffffffffffffffffffff1673ffffffffffffffffffffffffffffffffffffffff16815260200190600101908083116112f2575b5050505050612309565b156115785760056002600084815260200190815260200160002060020160146101000a81548160ff0219169083600581111561138557611384612508565b5b0217905550600160009054906101000a900473ffffffffffffffffffffffffffffffffffffffff1673ffffffffffffffffffffffffffffffffffffffff16637eee288d6002600085815260200190815260200160002060010160009054906101000a900473ffffffffffffffffffffffffffffffffffffffff1660026000868152602001908152602001600020600301546040518363ffffffff1660e01b81526004016114339291906128d9565b600060405180830381600087803b15801561144d57600080fd5b505af1158015611461573d6000803e3d6000fd5b50505050600160009054906101000a900473ffffffffffffffffffffffffffffffffffffffff1673ffffffffffffffffffffffffffffffffffffffff16637eee288d6002600085815260200190815260200160002060020160009054906101000a900473ffffffffffffffffffffffffffffffffffffffff1660026000868152602001908152602001600020600301546040518363ffffffff1660e01b815260040161150e9291906128d9565b600060405180830381600087803b15801561152857600080fd5b505af115801561153c573d6000803e3d6000fd5b505050507fbde3492a0339dd7cc8e00379877e059a377bad88cd45be37d94fc781910b95c98260405161156f9190612699565b60405180910390a15b5b5050565b6003602052816000526040600020816009811061159957600080fd5b016000915091509054906101000a900473ffffffffffffffffffffffffffffffffffffffff1681565b600160009054906101000a900473ffffffffffffffffffffffffffffffffffffffff1673ffffffffffffffffffffffffffffffffffffffff16636c24a76f336040518263ffffffff1660e01b815260040161161d919061276d565b602060405180830381865afa15801561163a573d6000803e3d6000fd5b505050506040513d601f19601f8201168201806040525081019061165e9190612840565b600260008381526020019081526020016000206003015411156116b6576040517f08c379a00000000000000000000000000000000000000000000000000000000081526004016116ad906128b9565b60405180910390fd5b600073ffffffffffffffffffffffffffffffffffffffff166002600083815260200190815260200160002060010160009054906101000a900473ffffffffffffffffffffffffffffffffffffffff1673ffffffffffffffffffffffffffffffffffffffff160361175b576040517f08c379a0000000000000000000000000000000000000000000000000000000008152600401611752906129fc565b60405180910390fd5b600073ffffffffffffffffffffffffffffffffffffffff166002600083815260200190815260200160002060020160009054906101000a900473ffffffffffffffffffffffffffffffffffffffff1673ffffffffffffffffffffffffffffffffffffffff1614611800576040517f08c379a00000000000000000000000000000000000000000000000000000000081526004016117f790612c81565b60405180910390fd5b3373ffffffffffffffffffffffffffffffffffffffff166002600083815260200190815260200160002060010160009054906101000a900473ffffffffffffffffffffffffffffffffffffffff1673ffffffffffffffffffffffffffffffffffffffff16036118a4576040517f08c379a000000000000000000000000000000000000000000000000000000000815260040161189b90612ced565b60405180910390fd5b600160009054906101000a900473ffffffffffffffffffffffffffffffffffffffff1673ffffffffffffffffffffffffffffffffffffffff1663282d3fdf3360026000858152602001908152602001600020600301546040518363ffffffff1660e01b81526004016119179291906128d9565b600060405180830381600087803b15801561193157600080fd5b505af1158015611945573d6000803e3d6000fd5b50505050336002600083815260200190815260200160002060020160006101000a81548173ffffffffffffffffffffffffffffffffffffffff021916908373ffffffffffffffffffffffffffffffffffffffff160217905550600280600083815260200190815260200160002060020160146101000a81548160ff021916908360058111156119d7576119d6612508565b5b02179055507f87969bc7faf902221a147b95ceba76e011c5efb0339a0a8ee7a2bb82d9cfbbd68133604051611a0d929190612c0c565b60405180910390a150565b60008073ffffffffffffffffffffffffffffffffffffffff1682600060098110611a4557611a44612a88565b5b602002015173ffffffffffffffffffffffffffffffffffffffff1614158015611ac9575081600160098110611a7d57611a7c612a88565b5b602002015173ffffffffffffffffffffffffffffffffffffffff1682600060098110611aac57611aab612a88565b5b602002015173ffffffffffffffffffffffffffffffffffffffff16145b8015611b30575081600260098110611ae457611ae3612a88565b5b602002015173ffffffffffffffffffffffffffffffffffffffff1682600160098110611b1357611b12612a88565b5b602002015173ffffffffffffffffffffffffffffffffffffffff16145b80611c4e5750600073ffffffffffffffffffffffffffffffffffffffff1682600360098110611b6257611b61612a88565b5b602002015173ffffffffffffffffffffffffffffffffffffffff1614158015611be6575081600460098110611b9a57611b99612a88565b5b602002015173ffffffffffffffffffffffffffffffffffffffff1682600360098110611bc957611bc8612a88565b5b602002015173ffffffffffffffffffffffffffffffffffffffff16145b8015611c4d575081600560098110611c0157611c00612a88565b5b602002015173ffffffffffffffffffffffffffffffffffffffff1682600460098110611c3057611c2f612a88565b5b602002015173ffffffffffffffffffffffffffffffffffffffff16145b5b80611d6c5750600073ffffffffffffffffffffffffffffffffffffffff1682600660098110611c8057611c7f612a88565b5b602002015173ffffffffffffffffffffffffffffffffffffffff1614158015611d04575081600760098110611cb857611cb7612a88565b5b602002015173ffffffffffffffffffffffffffffffffffffffff1682600660098110611ce757611ce6612a88565b5b602002015173ffffffffffffffffffffffffffffffffffffffff16145b8015611d6b575081600860098110611d1f57611d1e612a88565b5b602002015173ffffffffffffffffffffffffffffffffffffffff1682600760098110611d4e57611d4d612a88565b5b602002015173ffffffffffffffffffffffffffffffffffffffff16145b5b80611e8a5750600073ffffffffffffffffffffffffffffffffffffffff1682600060098110611d9e57611d9d612a88565b5b602002015173ffffffffffffffffffffffffffffffffffffffff1614158015611e22575081600360098110611dd657611dd5612a88565b5b602002015173ffffffffffffffffffffffffffffffffffffffff1682600060098110611e0557611e04612a88565b5b602002015173ffffffffffffffffffffffffffffffffffffffff16145b8015611e89575081600660098110611e3d57611e3c612a88565b5b602002015173ffffffffffffffffffffffffffffffffffffffff1682600360098110611e6c57611e6b612a88565b5b602002015173ffffffffffffffffffffffffffffffffffffffff16145b5b80611fa85750600073ffffffffffffffffffffffffffffffffffffffff1682600160098110611ebc57611ebb612a88565b5b602002015173ffffffffffffffffffffffffffffffffffffffff1614158015611f40575081600460098110611ef457611ef3612a88565b5b602002015173ffffffffffffffffffffffffffffffffffffffff1682600160098110611f2357611f22612a88565b5b602002015173ffffffffffffffffffffffffffffffffffffffff16145b8015611fa7575081600760098110611f5b57611f5a612a88565b5b602002015173ffffffffffffffffffffffffffffffffffffffff1682600460098110611f8a57611f89612a88565b5b602002015173ffffffffffffffffffffffffffffffffffffffff16145b5b806120c65750600073ffffffffffffffffffffffffffffffffffffffff1682600260098110611fda57611fd9612a88565b5b602002015173ffffffffffffffffffffffffffffffffffffffff161415801561205e57508160056009811061201257612011612a88565b5b602002015173ffffffffffffffffffffffffffffffffffffffff168260026009811061204157612040612a88565b5b602002015173ffffffffffffffffffffffffffffffffffffffff16145b80156120c557508160086009811061207957612078612a88565b5b602002015173ffffffffffffffffffffffffffffffffffffffff16826005600981106120a8576120a7612a88565b5b602002015173ffffffffffffffffffffffffffffffffffffffff16145b5b806121e45750600073ffffffffffffffffffffffffffffffffffffffff16826000600981106120f8576120f7612a88565b5b602002015173ffffffffffffffffffffffffffffffffffffffff161415801561217c5750816004600981106121305761212f612a88565b5b602002015173ffffffffffffffffffffffffffffffffffffffff168260006009811061215f5761215e612a88565b5b602002015173ffffffffffffffffffffffffffffffffffffffff16145b80156121e357508160086009811061219757612196612a88565b5b602002015173ffffffffffffffffffffffffffffffffffffffff16826004600981106121c6576121c5612a88565b5b602002015173ffffffffffffffffffffffffffffffffffffffff16145b5b806123025750600073ffffffffffffffffffffffffffffffffffffffff168260026009811061221657612215612a88565b5b602002015173ffffffffffffffffffffffffffffffffffffffff161415801561229a57508160046009811061224e5761224d612a88565b5b602002015173ffffffffffffffffffffffffffffffffffffffff168260026009811061227d5761227c612a88565b5b602002015173ffffffffffffffffffffffffffffffffffffffff16145b80156123015750816006600981106122b5576122b4612a88565b5b602002015173ffffffffffffffffffffffffffffffffffffffff16826004600981106122e4576122e3612a88565b5b602002015173ffffffffffffffffffffffffffffffffffffffff16145b5b9050919050565b600080600090505b60098160ff16101561238857600073ffffffffffffffffffffffffffffffffffffffff16838260ff166009811061234b5761234a612a88565b5b602002015173ffffffffffffffffffffffffffffffffffffffff160361237557600091505061238e565b808061238090612d0d565b915050612311565b50600190505b919050565b604051806101200160405280600990602082028036833780820191505090505090565b8260098101928215612422579160200282015b828111156124215782518260006101000a81548173ffffffffffffffffffffffffffffffffffffffff021916908373ffffffffffffffffffffffffffffffffffffffff160217905550916020019190600101906123c9565b5b50905061242f9190612433565b5090565b5b8082111561244c576000816000905550600101612434565b5090565b600080fd5b6000819050919050565b61246881612455565b811461247357600080fd5b50565b6000813590506124858161245f565b92915050565b6000602082840312156124a1576124a0612450565b5b60006124af84828501612476565b91505092915050565b6124c181612455565b82525050565b600073ffffffffffffffffffffffffffffffffffffffff82169050919050565b60006124f2826124c7565b9050919050565b612502816124e7565b82525050565b7f4e487b7100000000000000000000000000000000000000000000000000000000600052602160045260246000fd5b6006811061254857612547612508565b5b50565b600081905061255982612537565b919050565b60006125698261254b565b9050919050565b6125798161255e565b82525050565b600060a08201905061259460008301886124b8565b6125a160208301876124f9565b6125ae60408301866124f9565b6125bb6060830185612570565b6125c860808301846124b8565b9695505050505050565b600060099050919050565b600081905092915050565b6000819050919050565b6125fb816124e7565b82525050565b600061260d83836125f2565b60208301905092915050565b6000602082019050919050565b61262f816125d2565b61263981846125dd565b9250612644826125e8565b8060005b8381101561267557815161265c8782612601565b965061266783612619565b925050600181019050612648565b505050505050565b6000610120820190506126936000830184612626565b92915050565b60006020820190506126ae60008301846124b8565b92915050565b600060ff82169050919050565b6126ca816126b4565b81146126d557600080fd5b50565b6000813590506126e7816126c1565b92915050565b6000806040838503121561270457612703612450565b5b600061271285828601612476565b9250506020612723858286016126d8565b9150509250929050565b6000806040838503121561274457612743612450565b5b600061275285828601612476565b925050602061276385828601612476565b9150509250929050565b600060208201905061278260008301846124f9565b92915050565b600082825260208201905092915050565b7f42657420616d6f756e74206d7573742062652067726561746572207468616e2060008201527f3000000000000000000000000000000000000000000000000000000000000000602082015250565b60006127f5602183612788565b915061280082612799565b604082019050919050565b60006020820190508181036000830152612824816127e8565b9050919050565b60008151905061283a8161245f565b92915050565b60006020828403121561285657612855612450565b5b60006128648482850161282b565b91505092915050565b7f4e6f7420656e6f7567682062616c616e63650000000000000000000000000000600082015250565b60006128a3601283612788565b91506128ae8261286d565b602082019050919050565b600060208201905081810360008301526128d281612896565b9050919050565b60006040820190506128ee60008301856124f9565b6128fb60208301846124b8565b9392505050565b7f4e487b7100000000000000000000000000000000000000000000000000000000600052601160045260246000fd5b600061293c82612455565b91507fffffffffffffffffffffffffffffffffffffffffffffffffffffffffffffffff820361296e5761296d612902565b5b600182019050919050565b600060608201905061298e60008301866124b8565b61299b60208301856124f9565b6129a860408301846124b8565b949350505050565b7f47616d6520646f6573206e6f7420657869737400000000000000000000000000600082015250565b60006129e6601383612788565b91506129f1826129b0565b602082019050919050565b60006020820190508181036000830152612a15816129d9565b9050919050565b7f47616d65206973206e6f74206163746976650000000000000000000000000000600082015250565b6000612a52601283612788565b9150612a5d82612a1c565b602082019050919050565b60006020820190508181036000830152612a8181612a45565b9050919050565b7f4e487b7100000000000000000000000000000000000000000000000000000000600052603260045260246000fd5b7f506f736974696f6e20697320616c72656164792074616b656e00000000000000600082015250565b6000612aed601983612788565b9150612af882612ab7565b602082019050919050565b60006020820190508181036000830152612b1c81612ae0565b9050919050565b7f4e6f7420796f7572207475726e00000000000000000000000000000000000000600082015250565b6000612b59600d83612788565b9150612b6482612b23565b602082019050919050565b60006020820190508181036000830152612b8881612b4c565b9050919050565b612b98816126b4565b82525050565b6000606082019050612bb360008301866124b8565b612bc060208301856124f9565b612bcd6040830184612b8f565b949350505050565b6000606082019050612bea60008301866124f9565b612bf760208301856124f9565b612c0460408301846124b8565b949350505050565b6000604082019050612c2160008301856124b8565b612c2e60208301846124f9565b9392505050565b7f47616d652069732066756c6c0000000000000000000000000000000000000000600082015250565b6000612c6b600c83612788565b9150612c7682612c35565b602082019050919050565b60006020820190508181036000830152612c9a81612c5e565b9050919050565b7f506c6179657220616c726561647920696e000000000000000000000000000000600082015250565b6000612cd7601183612788565b9150612ce282612ca1565b602082019050919050565b60006020820190508181036000830152612d0681612cca565b9050919050565b6000612d18826126b4565b915060ff8203612d2b57612d2a612902565b5b60018201905091905056fea26469706673582212202c235e5927b6a3b215a0b3e8e4df393a72554e83277a0c97346ead98dc4a27d864736f6c63430008110033",
  "linkReferences": {},
  "deployedLinkReferences": {}
}