{
  "_format": "hh-sol-artifact-1",
  "contractName": "TicTacToe",
  "sourceName": "contracts/TicTacToe.sol",
  "abi": [
    {
      "anonymous": false,
      "inputs": [
        {
          "indexed": false,
          "internalType": "uint256",
          "name": "id",
          "type": "uint256"
        },
        {
          "indexed": false,
          "internalType": "address",
          "name": "player1",
          "type": "address"
        }
      ],
      "name": "GameCreated",
      "type": "event"
    },
    {
      "anonymous": false,
      "inputs": [
        {
          "indexed": false,
          "internalType": "uint256",
          "name": "id",
          "type": "uint256"
        }
      ],
      "name": "GameDraw",
      "type": "event"
    },
    {
      "anonymous": false,
      "inputs": [
        {
          "indexed": false,
          "internalType": "uint256",
          "name": "id",
          "type": "uint256"
        },
        {
          "indexed": false,
          "internalType": "address",
          "name": "player",
          "type": "address"
        }
      ],
      "name": "GameWon",
      "type": "event"
    },
    {
      "anonymous": false,
      "inputs": [
        {
          "indexed": false,
          "internalType": "uint256",
          "name": "id",
          "type": "uint256"
        },
        {
          "indexed": false,
          "internalType": "address",
          "name": "player",
          "type": "address"
        },
        {
          "indexed": false,
          "internalType": "uint8",
          "name": "position",
          "type": "uint8"
        }
      ],
      "name": "MoveMade",
      "type": "event"
    },
    {
      "anonymous": false,
      "inputs": [
        {
          "indexed": false,
          "internalType": "uint256",
          "name": "id",
          "type": "uint256"
        },
        {
          "indexed": false,
          "internalType": "address",
          "name": "player",
          "type": "address"
        }
      ],
      "name": "PlayerJoined",
      "type": "event"
    },
    {
      "inputs": [
        {
          "internalType": "uint256",
          "name": "",
          "type": "uint256"
        },
        {
          "internalType": "uint256",
          "name": "",
          "type": "uint256"
        }
      ],
      "name": "boards",
      "outputs": [
        {
          "internalType": "address",
          "name": "",
          "type": "address"
        }
      ],
      "stateMutability": "view",
      "type": "function"
    },
    {
      "inputs": [],
      "name": "createGame",
      "outputs": [
        {
          "internalType": "uint256",
          "name": "",
          "type": "uint256"
        }
      ],
      "stateMutability": "nonpayable",
      "type": "function"
    },
    {
      "inputs": [],
      "name": "gameCount",
      "outputs": [
        {
          "internalType": "uint256",
          "name": "",
          "type": "uint256"
        }
      ],
      "stateMutability": "view",
      "type": "function"
    },
    {
      "inputs": [
        {
          "internalType": "uint256",
          "name": "",
          "type": "uint256"
        }
      ],
      "name": "games",
      "outputs": [
        {
          "internalType": "uint256",
          "name": "id",
          "type": "uint256"
        },
        {
          "internalType": "address",
          "name": "player1",
          "type": "address"
        },
        {
          "internalType": "address",
          "name": "player2",
          "type": "address"
        },
        {
          "internalType": "enum TicTacToe.State",
          "name": "state",
          "type": "uint8"
        }
      ],
      "stateMutability": "view",
      "type": "function"
    },
    {
      "inputs": [
        {
          "internalType": "uint256",
          "name": "id",
          "type": "uint256"
        }
      ],
      "name": "joinGame",
      "outputs": [],
      "stateMutability": "nonpayable",
      "type": "function"
    },
    {
      "inputs": [
        {
          "internalType": "uint256",
          "name": "id",
          "type": "uint256"
        },
        {
          "internalType": "uint8",
          "name": "position",
          "type": "uint8"
        }
      ],
      "name": "makeMove",
      "outputs": [],
      "stateMutability": "nonpayable",
      "type": "function"
    }
  ],
  "bytecode": "0x608060405234801561001057600080fd5b50612123806100206000396000f3fe608060405234801561001057600080fd5b50600436106100625760003560e01c8063117a5b90146100675780634d1975b41461009a5780637255d729146100b85780637fd6f7c4146100d6578063b7667629146100f2578063efaa55a014610122575b600080fd5b610081600480360381019061007c9190611aee565b61013e565b6040516100919493929190611be2565b60405180910390f35b6100a26101bb565b6040516100af9190611c27565b60405180910390f35b6100c06101c1565b6040516100cd9190611c27565b60405180910390f35b6100f060048036038101906100eb9190611c7b565b610552565b005b61010c60048036038101906101079190611cbb565b610d9b565b6040516101199190611cfb565b60405180910390f35b61013c60048036038101906101379190611aee565b610de0565b005b60016020528060005260406000206000915090508060000154908060010160009054906101000a900473ffffffffffffffffffffffffffffffffffffffff16908060020160009054906101000a900473ffffffffffffffffffffffffffffffffffffffff16908060020160149054906101000a900460ff16905084565b60005481565b6000806000808154809291906101d690611d45565b91905055905060405180608001604052808281526020013373ffffffffffffffffffffffffffffffffffffffff168152602001600073ffffffffffffffffffffffffffffffffffffffff1681526020016000600581111561023a57610239611b6b565b5b815250600160008381526020019081526020016000206000820151816000015560208201518160010160006101000a81548173ffffffffffffffffffffffffffffffffffffffff021916908373ffffffffffffffffffffffffffffffffffffffff16021790555060408201518160020160006101000a81548173ffffffffffffffffffffffffffffffffffffffff021916908373ffffffffffffffffffffffffffffffffffffffff16021790555060608201518160020160146101000a81548160ff0219169083600581111561031357610312611b6b565b5b0217905550905050604051806101200160405280600073ffffffffffffffffffffffffffffffffffffffff1673ffffffffffffffffffffffffffffffffffffffff168152602001600073ffffffffffffffffffffffffffffffffffffffff1673ffffffffffffffffffffffffffffffffffffffff168152602001600073ffffffffffffffffffffffffffffffffffffffff1673ffffffffffffffffffffffffffffffffffffffff168152602001600073ffffffffffffffffffffffffffffffffffffffff1673ffffffffffffffffffffffffffffffffffffffff168152602001600073ffffffffffffffffffffffffffffffffffffffff1673ffffffffffffffffffffffffffffffffffffffff168152602001600073ffffffffffffffffffffffffffffffffffffffff1673ffffffffffffffffffffffffffffffffffffffff168152602001600073ffffffffffffffffffffffffffffffffffffffff1673ffffffffffffffffffffffffffffffffffffffff168152602001600073ffffffffffffffffffffffffffffffffffffffff1673ffffffffffffffffffffffffffffffffffffffff168152602001600073ffffffffffffffffffffffffffffffffffffffff1673ffffffffffffffffffffffffffffffffffffffff1681525060026000838152602001908152602001600020906009610511929190611a19565b507fc3e0f84839dc888c892a013d10c8f9d6dc05a21a879d0ce468ca558013e9121c8133604051610543929190611d8d565b60405180910390a18091505090565b600073ffffffffffffffffffffffffffffffffffffffff166001600084815260200190815260200160002060010160009054906101000a900473ffffffffffffffffffffffffffffffffffffffff1673ffffffffffffffffffffffffffffffffffffffff16036105f7576040517f08c379a00000000000000000000000000000000000000000000000000000000081526004016105ee90611e13565b60405180910390fd5b6001600581111561060b5761060a611b6b565b5b6001600084815260200190815260200160002060020160149054906101000a900460ff16600581111561064157610640611b6b565b5b148061069457506002600581111561065c5761065b611b6b565b5b6001600084815260200190815260200160002060020160149054906101000a900460ff16600581111561069257610691611b6b565b5b145b6106d3576040517f08c379a00000000000000000000000000000000000000000000000000000000081526004016106ca90611e7f565b60405180910390fd5b600073ffffffffffffffffffffffffffffffffffffffff16600260008481526020019081526020016000208260ff166009811061071357610712611e9f565b5b0160009054906101000a900473ffffffffffffffffffffffffffffffffffffffff1673ffffffffffffffffffffffffffffffffffffffff161461078b576040517f08c379a000000000000000000000000000000000000000000000000000000000815260040161078290611f1a565b60405180910390fd5b6001600083815260200190815260200160002060010160009054906101000a900473ffffffffffffffffffffffffffffffffffffffff1673ffffffffffffffffffffffffffffffffffffffff163373ffffffffffffffffffffffffffffffffffffffff1614801561084357506001600581111561080b5761080a611b6b565b5b6001600084815260200190815260200160002060020160149054906101000a900460ff16600581111561084157610840611b6b565b5b145b8061090257506001600083815260200190815260200160002060020160009054906101000a900473ffffffffffffffffffffffffffffffffffffffff1673ffffffffffffffffffffffffffffffffffffffff163373ffffffffffffffffffffffffffffffffffffffff161480156109015750600260058111156108c9576108c8611b6b565b5b6001600084815260200190815260200160002060020160149054906101000a900460ff1660058111156108ff576108fe611b6b565b5b145b5b610941576040517f08c379a000000000000000000000000000000000000000000000000000000000815260040161093890611f86565b60405180910390fd5b33600260008481526020019081526020016000208260ff166009811061096a57610969611e9f565b5b0160006101000a81548173ffffffffffffffffffffffffffffffffffffffff021916908373ffffffffffffffffffffffffffffffffffffffff1602179055507f2e609ae07cc76b1b2b76d7ada4250d5191a8eb5eb7e19181c23c5da8e9643ad18233836040516109dc93929190611fb5565b60405180910390a16001600083815260200190815260200160002060010160009054906101000a900473ffffffffffffffffffffffffffffffffffffffff1673ffffffffffffffffffffffffffffffffffffffff163373ffffffffffffffffffffffffffffffffffffffff1603610a915760026001600084815260200190815260200160002060020160146101000a81548160ff02191690836005811115610a8757610a86611b6b565b5b0217905550610ad0565b600180600084815260200190815260200160002060020160146101000a81548160ff02191690836005811115610aca57610ac9611b6b565b5b02179055505b610b5d60026000848152602001908152602001600020600980602002604051908101604052809291908260098015610b53576020028201915b8160009054906101000a900473ffffffffffffffffffffffffffffffffffffffff1673ffffffffffffffffffffffffffffffffffffffff1681526020019060010190808311610b09575b505050505061109e565b15610c8d576001600083815260200190815260200160002060010160009054906101000a900473ffffffffffffffffffffffffffffffffffffffff1673ffffffffffffffffffffffffffffffffffffffff163373ffffffffffffffffffffffffffffffffffffffff1603610c0f5760036001600084815260200190815260200160002060020160146101000a81548160ff02191690836005811115610c0557610c04611b6b565b5b0217905550610c4f565b60046001600084815260200190815260200160002060020160146101000a81548160ff02191690836005811115610c4957610c48611b6b565b5b02179055505b7f4dc08ce212d967a2959e5901a545b00fd4f86c108a0de62a8d906b7b0793c6d68233604051610c80929190611d8d565b60405180910390a1610d97565b610d1a60026000848152602001908152602001600020600980602002604051908101604052809291908260098015610d10576020028201915b8160009054906101000a900473ffffffffffffffffffffffffffffffffffffffff1673ffffffffffffffffffffffffffffffffffffffff1681526020019060010190808311610cc6575b505050505061198f565b15610d965760056001600084815260200190815260200160002060020160146101000a81548160ff02191690836005811115610d5957610d58611b6b565b5b02179055507fbde3492a0339dd7cc8e00379877e059a377bad88cd45be37d94fc781910b95c982604051610d8d9190611c27565b60405180910390a15b5b5050565b60026020528160005260406000208160098110610db757600080fd5b016000915091509054906101000a900473ffffffffffffffffffffffffffffffffffffffff1681565b600073ffffffffffffffffffffffffffffffffffffffff166001600083815260200190815260200160002060010160009054906101000a900473ffffffffffffffffffffffffffffffffffffffff1673ffffffffffffffffffffffffffffffffffffffff1603610e85576040517f08c379a0000000000000000000000000000000000000000000000000000000008152600401610e7c90611e13565b60405180910390fd5b600073ffffffffffffffffffffffffffffffffffffffff166001600083815260200190815260200160002060020160009054906101000a900473ffffffffffffffffffffffffffffffffffffffff1673ffffffffffffffffffffffffffffffffffffffff1614610f2a576040517f08c379a0000000000000000000000000000000000000000000000000000000008152600401610f2190612038565b60405180910390fd5b3373ffffffffffffffffffffffffffffffffffffffff166001600083815260200190815260200160002060010160009054906101000a900473ffffffffffffffffffffffffffffffffffffffff1673ffffffffffffffffffffffffffffffffffffffff1603610fce576040517f08c379a0000000000000000000000000000000000000000000000000000000008152600401610fc5906120a4565b60405180910390fd5b336001600083815260200190815260200160002060020160006101000a81548173ffffffffffffffffffffffffffffffffffffffff021916908373ffffffffffffffffffffffffffffffffffffffff16021790555060026001600083815260200190815260200160002060020160146101000a81548160ff0219169083600581111561105d5761105c611b6b565b5b02179055507f87969bc7faf902221a147b95ceba76e011c5efb0339a0a8ee7a2bb82d9cfbbd68133604051611093929190611d8d565b60405180910390a150565b60008073ffffffffffffffffffffffffffffffffffffffff16826000600981106110cb576110ca611e9f565b5b602002015173ffffffffffffffffffffffffffffffffffffffff161415801561114f57508160016009811061110357611102611e9f565b5b602002015173ffffffffffffffffffffffffffffffffffffffff168260006009811061113257611131611e9f565b5b602002015173ffffffffffffffffffffffffffffffffffffffff16145b80156111b657508160026009811061116a57611169611e9f565b5b602002015173ffffffffffffffffffffffffffffffffffffffff168260016009811061119957611198611e9f565b5b602002015173ffffffffffffffffffffffffffffffffffffffff16145b806112d45750600073ffffffffffffffffffffffffffffffffffffffff16826003600981106111e8576111e7611e9f565b5b602002015173ffffffffffffffffffffffffffffffffffffffff161415801561126c5750816004600981106112205761121f611e9f565b5b602002015173ffffffffffffffffffffffffffffffffffffffff168260036009811061124f5761124e611e9f565b5b602002015173ffffffffffffffffffffffffffffffffffffffff16145b80156112d357508160056009811061128757611286611e9f565b5b602002015173ffffffffffffffffffffffffffffffffffffffff16826004600981106112b6576112b5611e9f565b5b602002015173ffffffffffffffffffffffffffffffffffffffff16145b5b806113f25750600073ffffffffffffffffffffffffffffffffffffffff168260066009811061130657611305611e9f565b5b602002015173ffffffffffffffffffffffffffffffffffffffff161415801561138a57508160076009811061133e5761133d611e9f565b5b602002015173ffffffffffffffffffffffffffffffffffffffff168260066009811061136d5761136c611e9f565b5b602002015173ffffffffffffffffffffffffffffffffffffffff16145b80156113f15750816008600981106113a5576113a4611e9f565b5b602002015173ffffffffffffffffffffffffffffffffffffffff16826007600981106113d4576113d3611e9f565b5b602002015173ffffffffffffffffffffffffffffffffffffffff16145b5b806115105750600073ffffffffffffffffffffffffffffffffffffffff168260006009811061142457611423611e9f565b5b602002015173ffffffffffffffffffffffffffffffffffffffff16141580156114a857508160036009811061145c5761145b611e9f565b5b602002015173ffffffffffffffffffffffffffffffffffffffff168260006009811061148b5761148a611e9f565b5b602002015173ffffffffffffffffffffffffffffffffffffffff16145b801561150f5750816006600981106114c3576114c2611e9f565b5b602002015173ffffffffffffffffffffffffffffffffffffffff16826003600981106114f2576114f1611e9f565b5b602002015173ffffffffffffffffffffffffffffffffffffffff16145b5b8061162e5750600073ffffffffffffffffffffffffffffffffffffffff168260016009811061154257611541611e9f565b5b602002015173ffffffffffffffffffffffffffffffffffffffff16141580156115c657508160046009811061157a57611579611e9f565b5b602002015173ffffffffffffffffffffffffffffffffffffffff16826001600981106115a9576115a8611e9f565b5b602002015173ffffffffffffffffffffffffffffffffffffffff16145b801561162d5750816007600981106115e1576115e0611e9f565b5b602002015173ffffffffffffffffffffffffffffffffffffffff16826004600981106116105761160f611e9f565b5b602002015173ffffffffffffffffffffffffffffffffffffffff16145b5b8061174c5750600073ffffffffffffffffffffffffffffffffffffffff16826002600981106116605761165f611e9f565b5b602002015173ffffffffffffffffffffffffffffffffffffffff16141580156116e457508160056009811061169857611697611e9f565b5b602002015173ffffffffffffffffffffffffffffffffffffffff16826002600981106116c7576116c6611e9f565b5b602002015173ffffffffffffffffffffffffffffffffffffffff16145b801561174b5750816008600981106116ff576116fe611e9f565b5b602002015173ffffffffffffffffffffffffffffffffffffffff168260056009811061172e5761172d611e9f565b5b602002015173ffffffffffffffffffffffffffffffffffffffff16145b5b8061186a5750600073ffffffffffffffffffffffffffffffffffffffff168260006009811061177e5761177d611e9f565b5b602002015173ffffffffffffffffffffffffffffffffffffffff16141580156118025750816004600981106117b6576117b5611e9f565b5b602002015173ffffffffffffffffffffffffffffffffffffffff16826000600981106117e5576117e4611e9f565b5b602002015173ffffffffffffffffffffffffffffffffffffffff16145b801561186957508160086009811061181d5761181c611e9f565b5b602002015173ffffffffffffffffffffffffffffffffffffffff168260046009811061184c5761184b611e9f565b5b602002015173ffffffffffffffffffffffffffffffffffffffff16145b5b806119885750600073ffffffffffffffffffffffffffffffffffffffff168260026009811061189c5761189b611e9f565b5b602002015173ffffffffffffffffffffffffffffffffffffffff16141580156119205750816004600981106118d4576118d3611e9f565b5b602002015173ffffffffffffffffffffffffffffffffffffffff168260026009811061190357611902611e9f565b5b602002015173ffffffffffffffffffffffffffffffffffffffff16145b801561198757508160066009811061193b5761193a611e9f565b5b602002015173ffffffffffffffffffffffffffffffffffffffff168260046009811061196a57611969611e9f565b5b602002015173ffffffffffffffffffffffffffffffffffffffff16145b5b9050919050565b600080600090505b60098160ff161015611a0e57600073ffffffffffffffffffffffffffffffffffffffff16838260ff16600981106119d1576119d0611e9f565b5b602002015173ffffffffffffffffffffffffffffffffffffffff16036119fb576000915050611a14565b8080611a06906120c4565b915050611997565b50600190505b919050565b8260098101928215611a85579160200282015b82811115611a845782518260006101000a81548173ffffffffffffffffffffffffffffffffffffffff021916908373ffffffffffffffffffffffffffffffffffffffff16021790555091602001919060010190611a2c565b5b509050611a929190611a96565b5090565b5b80821115611aaf576000816000905550600101611a97565b5090565b600080fd5b6000819050919050565b611acb81611ab8565b8114611ad657600080fd5b50565b600081359050611ae881611ac2565b92915050565b600060208284031215611b0457611b03611ab3565b5b6000611b1284828501611ad9565b91505092915050565b611b2481611ab8565b82525050565b600073ffffffffffffffffffffffffffffffffffffffff82169050919050565b6000611b5582611b2a565b9050919050565b611b6581611b4a565b82525050565b7f4e487b7100000000000000000000000000000000000000000000000000000000600052602160045260246000fd5b60068110611bab57611baa611b6b565b5b50565b6000819050611bbc82611b9a565b919050565b6000611bcc82611bae565b9050919050565b611bdc81611bc1565b82525050565b6000608082019050611bf76000830187611b1b565b611c046020830186611b5c565b611c116040830185611b5c565b611c1e6060830184611bd3565b95945050505050565b6000602082019050611c3c6000830184611b1b565b92915050565b600060ff82169050919050565b611c5881611c42565b8114611c6357600080fd5b50565b600081359050611c7581611c4f565b92915050565b60008060408385031215611c9257611c91611ab3565b5b6000611ca085828601611ad9565b9250506020611cb185828601611c66565b9150509250929050565b60008060408385031215611cd257611cd1611ab3565b5b6000611ce085828601611ad9565b9250506020611cf185828601611ad9565b9150509250929050565b6000602082019050611d106000830184611b5c565b92915050565b7f4e487b7100000000000000000000000000000000000000000000000000000000600052601160045260246000fd5b6000611d5082611ab8565b91507fffffffffffffffffffffffffffffffffffffffffffffffffffffffffffffffff8203611d8257611d81611d16565b5b600182019050919050565b6000604082019050611da26000830185611b1b565b611daf6020830184611b5c565b9392505050565b600082825260208201905092915050565b7f47616d6520646f6573206e6f7420657869737400000000000000000000000000600082015250565b6000611dfd601383611db6565b9150611e0882611dc7565b602082019050919050565b60006020820190508181036000830152611e2c81611df0565b9050919050565b7f47616d65206973206e6f74206163746976650000000000000000000000000000600082015250565b6000611e69601283611db6565b9150611e7482611e33565b602082019050919050565b60006020820190508181036000830152611e9881611e5c565b9050919050565b7f4e487b7100000000000000000000000000000000000000000000000000000000600052603260045260246000fd5b7f506f736974696f6e20697320616c72656164792074616b656e00000000000000600082015250565b6000611f04601983611db6565b9150611f0f82611ece565b602082019050919050565b60006020820190508181036000830152611f3381611ef7565b9050919050565b7f4e6f7420796f7572207475726e00000000000000000000000000000000000000600082015250565b6000611f70600d83611db6565b9150611f7b82611f3a565b602082019050919050565b60006020820190508181036000830152611f9f81611f63565b9050919050565b611faf81611c42565b82525050565b6000606082019050611fca6000830186611b1b565b611fd76020830185611b5c565b611fe46040830184611fa6565b949350505050565b7f47616d652069732066756c6c0000000000000000000000000000000000000000600082015250565b6000612022600c83611db6565b915061202d82611fec565b602082019050919050565b6000602082019050818103600083015261205181612015565b9050919050565b7f506c6179657220616c726561647920696e000000000000000000000000000000600082015250565b600061208e601183611db6565b915061209982612058565b602082019050919050565b600060208201905081810360008301526120bd81612081565b9050919050565b60006120cf82611c42565b915060ff82036120e2576120e1611d16565b5b60018201905091905056fea2646970667358221220e3b788813f3afd482c4b56d71e5e8ca3171d029a3142ca356d78b1ef2052aac664736f6c63430008110033",
  "linkReferences": {},
  "deployedLinkReferences": {}
}