{
  "_format": "hh-sol-artifact-1",
  "contractName": "Vault",
  "sourceName": "contracts/Vault.sol",
  "abi": [
    {
      "inputs": [
        {
          "internalType": "address",
          "name": "_tokenAddress",
          "type": "address"
        }
      ],
      "stateMutability": "nonpayable",
      "type": "constructor"
    },
    {
      "anonymous": false,
      "inputs": [
        {
          "indexed": false,
          "internalType": "uint256",
          "name": "amount",
          "type": "uint256"
        },
        {
          "indexed": false,
          "internalType": "address",
          "name": "user",
          "type": "address"
        }
      ],
      "name": "Deposit",
      "type": "event"
    },
    {
      "anonymous": false,
      "inputs": [
        {
          "indexed": false,
          "internalType": "uint256",
          "name": "amount",
          "type": "uint256"
        },
        {
          "indexed": false,
          "internalType": "address",
          "name": "user",
          "type": "address"
        }
      ],
      "name": "Withdraw",
      "type": "event"
    },
    {
      "inputs": [
        {
          "internalType": "address",
          "name": "",
          "type": "address"
        }
      ],
      "name": "balanceOf",
      "outputs": [
        {
          "internalType": "uint256",
          "name": "",
          "type": "uint256"
        }
      ],
      "stateMutability": "view",
      "type": "function"
    },
    {
      "inputs": [
        {
          "internalType": "uint256",
          "name": "_amount",
          "type": "uint256"
        }
      ],
      "name": "deposit",
      "outputs": [],
      "stateMutability": "nonpayable",
      "type": "function"
    },
    {
      "inputs": [
        {
          "internalType": "address",
          "name": "user",
          "type": "address"
        }
      ],
      "name": "getAvailableBalance",
      "outputs": [
        {
          "internalType": "uint256",
          "name": "",
          "type": "uint256"
        }
      ],
      "stateMutability": "view",
      "type": "function"
    },
    {
      "inputs": [
        {
          "internalType": "address",
          "name": "user",
          "type": "address"
        },
        {
          "internalType": "uint256",
          "name": "_amount",
          "type": "uint256"
        }
      ],
      "name": "lock",
      "outputs": [],
      "stateMutability": "nonpayable",
      "type": "function"
    },
    {
      "inputs": [
        {
          "internalType": "address",
          "name": "",
          "type": "address"
        }
      ],
      "name": "lockedBalanceOf",
      "outputs": [
        {
          "internalType": "uint256",
          "name": "",
          "type": "uint256"
        }
      ],
      "stateMutability": "view",
      "type": "function"
    },
    {
      "inputs": [
        {
          "internalType": "address",
          "name": "from",
          "type": "address"
        },
        {
          "internalType": "address",
          "name": "to",
          "type": "address"
        },
        {
          "internalType": "uint256",
          "name": "_amount",
          "type": "uint256"
        }
      ],
      "name": "move",
      "outputs": [],
      "stateMutability": "nonpayable",
      "type": "function"
    },
    {
      "inputs": [],
      "name": "totalBalance",
      "outputs": [
        {
          "internalType": "uint256",
          "name": "",
          "type": "uint256"
        }
      ],
      "stateMutability": "view",
      "type": "function"
    },
    {
      "inputs": [
        {
          "internalType": "address",
          "name": "user",
          "type": "address"
        },
        {
          "internalType": "uint256",
          "name": "_amount",
          "type": "uint256"
        }
      ],
      "name": "unlock",
      "outputs": [],
      "stateMutability": "nonpayable",
      "type": "function"
    },
    {
      "inputs": [
        {
          "internalType": "uint256",
          "name": "_amount",
          "type": "uint256"
        }
      ],
      "name": "withdraw",
      "outputs": [],
      "stateMutability": "nonpayable",
      "type": "function"
    }
  ],
  "bytecode": "0x608060405234801561001057600080fd5b5060405162000f9f38038062000f9f833981810160405281019061003491906100dd565b806000806101000a81548173ffffffffffffffffffffffffffffffffffffffff021916908373ffffffffffffffffffffffffffffffffffffffff1602179055505061010a565b600080fd5b600073ffffffffffffffffffffffffffffffffffffffff82169050919050565b60006100aa8261007f565b9050919050565b6100ba8161009f565b81146100c557600080fd5b50565b6000815190506100d7816100b1565b92915050565b6000602082840312156100f3576100f261007a565b5b6000610101848285016100c8565b91505092915050565b610e85806200011a6000396000f3fe608060405234801561001057600080fd5b50600436106100935760003560e01c806370a082311161006657806370a08231146101305780637eee288d14610160578063ad7a672f1461017c578063b6b55f251461019a578063bb35783b146101b657610093565b8063282d3fdf146100985780632e1a7d4d146100b457806359355736146100d05780636c24a76f14610100575b600080fd5b6100b260048036038101906100ad91906109e4565b6101d2565b005b6100ce60048036038101906100c99190610a24565b61027d565b005b6100ea60048036038101906100e59190610a51565b610449565b6040516100f79190610a8d565b60405180910390f35b61011a60048036038101906101159190610a51565b610461565b6040516101279190610a8d565b60405180910390f35b61014a60048036038101906101459190610a51565b6104f4565b6040516101579190610a8d565b60405180910390f35b61017a600480360381019061017591906109e4565b61050c565b005b6101846105e8565b6040516101919190610a8d565b60405180910390f35b6101b460048036038101906101af9190610a24565b6105ee565b005b6101d060048036038101906101cb9190610aa8565b610818565b005b60006101dd83610461565b905080821115610222576040517f08c379a000000000000000000000000000000000000000000000000000000000815260040161021990610b58565b60405180910390fd5b81600260008573ffffffffffffffffffffffffffffffffffffffff1673ffffffffffffffffffffffffffffffffffffffff16815260200190815260200160002060008282546102719190610ba7565b92505081905550505050565b600160003373ffffffffffffffffffffffffffffffffffffffff1673ffffffffffffffffffffffffffffffffffffffff168152602001908152602001600020548111156102ff576040517f08c379a00000000000000000000000000000000000000000000000000000000081526004016102f690610b58565b60405180910390fd5b60008054906101000a900473ffffffffffffffffffffffffffffffffffffffff1673ffffffffffffffffffffffffffffffffffffffff1663a9059cbb33836040518363ffffffff1660e01b815260040161035a929190610bea565b6020604051808303816000875af1158015610379573d6000803e3d6000fd5b505050506040513d601f19601f8201168201806040525081019061039d9190610c4b565b5080600160003373ffffffffffffffffffffffffffffffffffffffff1673ffffffffffffffffffffffffffffffffffffffff16815260200190815260200160002060008282546103ed9190610c78565b9250508190555080600360008282546104069190610c78565b925050819055507f8353ffcac0876ad14e226d9783c04540bfebf13871e868157d2a391cad98e918813360405161043e929190610cac565b60405180910390a150565b60026020528060005260406000206000915090505481565b6000600260008373ffffffffffffffffffffffffffffffffffffffff1673ffffffffffffffffffffffffffffffffffffffff16815260200190815260200160002054600160008473ffffffffffffffffffffffffffffffffffffffff1673ffffffffffffffffffffffffffffffffffffffff168152602001908152602001600020546104ed9190610c78565b9050919050565b60016020528060005260406000206000915090505481565b600260008373ffffffffffffffffffffffffffffffffffffffff1673ffffffffffffffffffffffffffffffffffffffff1681526020019081526020016000205481111561058e576040517f08c379a000000000000000000000000000000000000000000000000000000000815260040161058590610d21565b60405180910390fd5b80600260008473ffffffffffffffffffffffffffffffffffffffff1673ffffffffffffffffffffffffffffffffffffffff16815260200190815260200160002060008282546105dd9190610c78565b925050819055505050565b60035481565b60008054906101000a900473ffffffffffffffffffffffffffffffffffffffff1673ffffffffffffffffffffffffffffffffffffffff1663dd62ed3e33306040518363ffffffff1660e01b8152600401610649929190610d41565b602060405180830381865afa158015610666573d6000803e3d6000fd5b505050506040513d601f19601f8201168201806040525081019061068a9190610d7f565b8111156106cc576040517f08c379a00000000000000000000000000000000000000000000000000000000081526004016106c390610df8565b60405180910390fd5b60008054906101000a900473ffffffffffffffffffffffffffffffffffffffff1673ffffffffffffffffffffffffffffffffffffffff166323b872dd3330846040518463ffffffff1660e01b815260040161072993929190610e18565b6020604051808303816000875af1158015610748573d6000803e3d6000fd5b505050506040513d601f19601f8201168201806040525081019061076c9190610c4b565b5080600160003373ffffffffffffffffffffffffffffffffffffffff1673ffffffffffffffffffffffffffffffffffffffff16815260200190815260200160002060008282546107bc9190610ba7565b9250508190555080600360008282546107d59190610ba7565b925050819055507f4bcc17093cdf51079c755de089be5a85e70fa374ec656c194480fbdcda224a53813360405161080d929190610cac565b60405180910390a150565b600160008473ffffffffffffffffffffffffffffffffffffffff1673ffffffffffffffffffffffffffffffffffffffff1681526020019081526020016000205481111561089a576040517f08c379a000000000000000000000000000000000000000000000000000000000815260040161089190610b58565b60405180910390fd5b80600160008573ffffffffffffffffffffffffffffffffffffffff1673ffffffffffffffffffffffffffffffffffffffff16815260200190815260200160002060008282546108e99190610c78565b9250508190555080600160008473ffffffffffffffffffffffffffffffffffffffff1673ffffffffffffffffffffffffffffffffffffffff168152602001908152602001600020600082825461093f9190610ba7565b92505081905550505050565b600080fd5b600073ffffffffffffffffffffffffffffffffffffffff82169050919050565b600061097b82610950565b9050919050565b61098b81610970565b811461099657600080fd5b50565b6000813590506109a881610982565b92915050565b6000819050919050565b6109c1816109ae565b81146109cc57600080fd5b50565b6000813590506109de816109b8565b92915050565b600080604083850312156109fb576109fa61094b565b5b6000610a0985828601610999565b9250506020610a1a858286016109cf565b9150509250929050565b600060208284031215610a3a57610a3961094b565b5b6000610a48848285016109cf565b91505092915050565b600060208284031215610a6757610a6661094b565b5b6000610a7584828501610999565b91505092915050565b610a87816109ae565b82525050565b6000602082019050610aa26000830184610a7e565b92915050565b600080600060608486031215610ac157610ac061094b565b5b6000610acf86828701610999565b9350506020610ae086828701610999565b9250506040610af1868287016109cf565b9150509250925092565b600082825260208201905092915050565b7f6e6f7420656e6f7567682062616c616e63650000000000000000000000000000600082015250565b6000610b42601283610afb565b9150610b4d82610b0c565b602082019050919050565b60006020820190508181036000830152610b7181610b35565b9050919050565b7f4e487b7100000000000000000000000000000000000000000000000000000000600052601160045260246000fd5b6000610bb2826109ae565b9150610bbd836109ae565b9250828201905080821115610bd557610bd4610b78565b5b92915050565b610be481610970565b82525050565b6000604082019050610bff6000830185610bdb565b610c0c6020830184610a7e565b9392505050565b60008115159050919050565b610c2881610c13565b8114610c3357600080fd5b50565b600081519050610c4581610c1f565b92915050565b600060208284031215610c6157610c6061094b565b5b6000610c6f84828501610c36565b91505092915050565b6000610c83826109ae565b9150610c8e836109ae565b9250828203905081811115610ca657610ca5610b78565b5b92915050565b6000604082019050610cc16000830185610a7e565b610cce6020830184610bdb565b9392505050565b7f6e6f7420656e6f756768206c6f636b65642062616c616e636500000000000000600082015250565b6000610d0b601983610afb565b9150610d1682610cd5565b602082019050919050565b60006020820190508181036000830152610d3a81610cfe565b9050919050565b6000604082019050610d566000830185610bdb565b610d636020830184610bdb565b9392505050565b600081519050610d79816109b8565b92915050565b600060208284031215610d9557610d9461094b565b5b6000610da384828501610d6a565b91505092915050565b7f6e6f7420656e6f75676820616c6c6f77616e6365000000000000000000000000600082015250565b6000610de2601483610afb565b9150610ded82610dac565b602082019050919050565b60006020820190508181036000830152610e1181610dd5565b9050919050565b6000606082019050610e2d6000830186610bdb565b610e3a6020830185610bdb565b610e476040830184610a7e565b94935050505056fea264697066735822122053065f0dd55dcc65fb8445006b579e90025b80aee6a104a35b8de24f49e0736964736f6c63430008110033",
  "linkReferences": {},
  "deployedLinkReferences": {}
}