{
  "_format": "hh-sol-artifact-1",
  "contractName": "Vault",
  "sourceName": "contracts/Vault.sol",
  "abi": [
    {
      "inputs": [
        {
          "internalType": "address",
          "name": "_tokenAddress",
          "type": "address"
        }
      ],
      "stateMutability": "nonpayable",
      "type": "constructor"
    },
    {
      "inputs": [
        {
          "internalType": "address",
          "name": "",
          "type": "address"
        }
      ],
      "name": "balanceOf",
      "outputs": [
        {
          "internalType": "uint256",
          "name": "",
          "type": "uint256"
        }
      ],
      "stateMutability": "view",
      "type": "function"
    },
    {
      "inputs": [
        {
          "internalType": "uint256",
          "name": "_amount",
          "type": "uint256"
        }
      ],
      "name": "deposit",
      "outputs": [],
      "stateMutability": "nonpayable",
      "type": "function"
    },
    {
      "inputs": [
        {
          "internalType": "address",
          "name": "user",
          "type": "address"
        }
      ],
      "name": "getAvailableBalance",
      "outputs": [
        {
          "internalType": "uint256",
          "name": "",
          "type": "uint256"
        }
      ],
      "stateMutability": "view",
      "type": "function"
    },
    {
      "inputs": [
        {
          "internalType": "address",
          "name": "user",
          "type": "address"
        },
        {
          "internalType": "uint256",
          "name": "_amount",
          "type": "uint256"
        }
      ],
      "name": "lock",
      "outputs": [],
      "stateMutability": "nonpayable",
      "type": "function"
    },
    {
      "inputs": [
        {
          "internalType": "address",
          "name": "",
          "type": "address"
        }
      ],
      "name": "lockedBalanceOf",
      "outputs": [
        {
          "internalType": "uint256",
          "name": "",
          "type": "uint256"
        }
      ],
      "stateMutability": "view",
      "type": "function"
    },
    {
      "inputs": [
        {
          "internalType": "address",
          "name": "from",
          "type": "address"
        },
        {
          "internalType": "address",
          "name": "to",
          "type": "address"
        },
        {
          "internalType": "uint256",
          "name": "_amount",
          "type": "uint256"
        }
      ],
      "name": "move",
      "outputs": [],
      "stateMutability": "nonpayable",
      "type": "function"
    },
    {
      "inputs": [],
      "name": "totalBalance",
      "outputs": [
        {
          "internalType": "uint256",
          "name": "",
          "type": "uint256"
        }
      ],
      "stateMutability": "view",
      "type": "function"
    },
    {
      "inputs": [
        {
          "internalType": "address",
          "name": "user",
          "type": "address"
        },
        {
          "internalType": "uint256",
          "name": "_amount",
          "type": "uint256"
        }
      ],
      "name": "unlock",
      "outputs": [],
      "stateMutability": "nonpayable",
      "type": "function"
    },
    {
      "inputs": [
        {
          "internalType": "uint256",
          "name": "_amount",
          "type": "uint256"
        }
      ],
      "name": "withdraw",
      "outputs": [],
      "stateMutability": "nonpayable",
      "type": "function"
    }
  ],
  "bytecode": "0x608060405234801561001057600080fd5b50604051610f01380380610f01833981810160405281019061003291906100db565b806000806101000a81548173ffffffffffffffffffffffffffffffffffffffff021916908373ffffffffffffffffffffffffffffffffffffffff16021790555050610108565b600080fd5b600073ffffffffffffffffffffffffffffffffffffffff82169050919050565b60006100a88261007d565b9050919050565b6100b88161009d565b81146100c357600080fd5b50565b6000815190506100d5816100af565b92915050565b6000602082840312156100f1576100f0610078565b5b60006100ff848285016100c6565b91505092915050565b610dea806101176000396000f3fe608060405234801561001057600080fd5b50600436106100935760003560e01c806370a082311161006657806370a08231146101305780637eee288d14610160578063ad7a672f1461017c578063b6b55f251461019a578063bb35783b146101b657610093565b8063282d3fdf146100985780632e1a7d4d146100b457806359355736146100d05780636c24a76f14610100575b600080fd5b6100b260048036038101906100ad9190610972565b6101d2565b005b6100ce60048036038101906100c991906109b2565b61027d565b005b6100ea60048036038101906100e591906109df565b610410565b6040516100f79190610a1b565b60405180910390f35b61011a600480360381019061011591906109df565b610428565b6040516101279190610a1b565b60405180910390f35b61014a600480360381019061014591906109df565b6104bb565b6040516101579190610a1b565b60405180910390f35b61017a60048036038101906101759190610972565b6104d3565b005b6101846105af565b6040516101919190610a1b565b60405180910390f35b6101b460048036038101906101af91906109b2565b6105b5565b005b6101d060048036038101906101cb9190610a36565b6107a6565b005b60006101dd83610428565b905080821115610222576040517f08c379a000000000000000000000000000000000000000000000000000000000815260040161021990610ae6565b60405180910390fd5b81600260008573ffffffffffffffffffffffffffffffffffffffff1673ffffffffffffffffffffffffffffffffffffffff16815260200190815260200160002060008282546102719190610b35565b92505081905550505050565b600160003373ffffffffffffffffffffffffffffffffffffffff1673ffffffffffffffffffffffffffffffffffffffff168152602001908152602001600020548111156102ff576040517f08c379a00000000000000000000000000000000000000000000000000000000081526004016102f690610ae6565b60405180910390fd5b60008054906101000a900473ffffffffffffffffffffffffffffffffffffffff1673ffffffffffffffffffffffffffffffffffffffff1663a9059cbb33836040518363ffffffff1660e01b815260040161035a929190610b78565b6020604051808303816000875af1158015610379573d6000803e3d6000fd5b505050506040513d601f19601f8201168201806040525081019061039d9190610bd9565b5080600160003373ffffffffffffffffffffffffffffffffffffffff1673ffffffffffffffffffffffffffffffffffffffff16815260200190815260200160002060008282546103ed9190610c06565b9250508190555080600360008282546104069190610c06565b9250508190555050565b60026020528060005260406000206000915090505481565b6000600260008373ffffffffffffffffffffffffffffffffffffffff1673ffffffffffffffffffffffffffffffffffffffff16815260200190815260200160002054600160008473ffffffffffffffffffffffffffffffffffffffff1673ffffffffffffffffffffffffffffffffffffffff168152602001908152602001600020546104b49190610c06565b9050919050565b60016020528060005260406000206000915090505481565b600260008373ffffffffffffffffffffffffffffffffffffffff1673ffffffffffffffffffffffffffffffffffffffff16815260200190815260200160002054811115610555576040517f08c379a000000000000000000000000000000000000000000000000000000000815260040161054c90610c86565b60405180910390fd5b80600260008473ffffffffffffffffffffffffffffffffffffffff1673ffffffffffffffffffffffffffffffffffffffff16815260200190815260200160002060008282546105a49190610c06565b925050819055505050565b60035481565b60008054906101000a900473ffffffffffffffffffffffffffffffffffffffff1673ffffffffffffffffffffffffffffffffffffffff1663dd62ed3e33306040518363ffffffff1660e01b8152600401610610929190610ca6565b602060405180830381865afa15801561062d573d6000803e3d6000fd5b505050506040513d601f19601f820116820180604052508101906106519190610ce4565b811115610693576040517f08c379a000000000000000000000000000000000000000000000000000000000815260040161068a90610d5d565b60405180910390fd5b60008054906101000a900473ffffffffffffffffffffffffffffffffffffffff1673ffffffffffffffffffffffffffffffffffffffff166323b872dd3330846040518463ffffffff1660e01b81526004016106f093929190610d7d565b6020604051808303816000875af115801561070f573d6000803e3d6000fd5b505050506040513d601f19601f820116820180604052508101906107339190610bd9565b5080600160003373ffffffffffffffffffffffffffffffffffffffff1673ffffffffffffffffffffffffffffffffffffffff16815260200190815260200160002060008282546107839190610b35565b92505081905550806003600082825461079c9190610b35565b9250508190555050565b600160008473ffffffffffffffffffffffffffffffffffffffff1673ffffffffffffffffffffffffffffffffffffffff16815260200190815260200160002054811115610828576040517f08c379a000000000000000000000000000000000000000000000000000000000815260040161081f90610ae6565b60405180910390fd5b80600160008573ffffffffffffffffffffffffffffffffffffffff1673ffffffffffffffffffffffffffffffffffffffff16815260200190815260200160002060008282546108779190610c06565b9250508190555080600160008473ffffffffffffffffffffffffffffffffffffffff1673ffffffffffffffffffffffffffffffffffffffff16815260200190815260200160002060008282546108cd9190610b35565b92505081905550505050565b600080fd5b600073ffffffffffffffffffffffffffffffffffffffff82169050919050565b6000610909826108de565b9050919050565b610919816108fe565b811461092457600080fd5b50565b60008135905061093681610910565b92915050565b6000819050919050565b61094f8161093c565b811461095a57600080fd5b50565b60008135905061096c81610946565b92915050565b60008060408385031215610989576109886108d9565b5b600061099785828601610927565b92505060206109a88582860161095d565b9150509250929050565b6000602082840312156109c8576109c76108d9565b5b60006109d68482850161095d565b91505092915050565b6000602082840312156109f5576109f46108d9565b5b6000610a0384828501610927565b91505092915050565b610a158161093c565b82525050565b6000602082019050610a306000830184610a0c565b92915050565b600080600060608486031215610a4f57610a4e6108d9565b5b6000610a5d86828701610927565b9350506020610a6e86828701610927565b9250506040610a7f8682870161095d565b9150509250925092565b600082825260208201905092915050565b7f6e6f7420656e6f7567682062616c616e63650000000000000000000000000000600082015250565b6000610ad0601283610a89565b9150610adb82610a9a565b602082019050919050565b60006020820190508181036000830152610aff81610ac3565b9050919050565b7f4e487b7100000000000000000000000000000000000000000000000000000000600052601160045260246000fd5b6000610b408261093c565b9150610b4b8361093c565b9250828201905080821115610b6357610b62610b06565b5b92915050565b610b72816108fe565b82525050565b6000604082019050610b8d6000830185610b69565b610b9a6020830184610a0c565b9392505050565b60008115159050919050565b610bb681610ba1565b8114610bc157600080fd5b50565b600081519050610bd381610bad565b92915050565b600060208284031215610bef57610bee6108d9565b5b6000610bfd84828501610bc4565b91505092915050565b6000610c118261093c565b9150610c1c8361093c565b9250828203905081811115610c3457610c33610b06565b5b92915050565b7f6e6f7420656e6f756768206c6f636b65642062616c616e636500000000000000600082015250565b6000610c70601983610a89565b9150610c7b82610c3a565b602082019050919050565b60006020820190508181036000830152610c9f81610c63565b9050919050565b6000604082019050610cbb6000830185610b69565b610cc86020830184610b69565b9392505050565b600081519050610cde81610946565b92915050565b600060208284031215610cfa57610cf96108d9565b5b6000610d0884828501610ccf565b91505092915050565b7f6e6f7420656e6f75676820616c6c6f77616e6365000000000000000000000000600082015250565b6000610d47601483610a89565b9150610d5282610d11565b602082019050919050565b60006020820190508181036000830152610d7681610d3a565b9050919050565b6000606082019050610d926000830186610b69565b610d9f6020830185610b69565b610dac6040830184610a0c565b94935050505056fea26469706673582212202398d271bcdcabb507f06d2c03659f322b41313b01d0f9f5a928563c0108b4d264736f6c63430008110033",
  "linkReferences": {},
  "deployedLinkReferences": {}
}